{
  "_format": "hh-sol-artifact-1",
  "contractName": "PropertyRegistry",
  "sourceName": "contracts/PropertyRegistry.sol",
  "abi": [
    {
      "inputs": [
        {
          "internalType": "address",
          "name": "initialOwner",
          "type": "address"
        }
      ],
      "stateMutability": "nonpayable",
      "type": "constructor"
    },
    {
      "inputs": [
        {
          "internalType": "address",
          "name": "owner",
          "type": "address"
        }
      ],
      "name": "OwnableInvalidOwner",
      "type": "error"
    },
    {
      "inputs": [
        {
          "internalType": "address",
          "name": "account",
          "type": "address"
        }
      ],
      "name": "OwnableUnauthorizedAccount",
      "type": "error"
    },
    {
      "anonymous": false,
      "inputs": [
        {
          "indexed": true,
          "internalType": "address",
          "name": "previousOwner",
          "type": "address"
        },
        {
          "indexed": true,
          "internalType": "address",
          "name": "newOwner",
          "type": "address"
        }
      ],
      "name": "OwnershipTransferred",
      "type": "event"
    },
    {
      "anonymous": false,
      "inputs": [
        {
          "indexed": true,
          "internalType": "uint256",
          "name": "propertyId",
          "type": "uint256"
        },
        {
          "indexed": true,
          "internalType": "address",
          "name": "currentOwner",
          "type": "address"
        },
        {
          "indexed": false,
          "internalType": "string",
          "name": "ipfsHash",
          "type": "string"
        },
        {
          "indexed": false,
          "internalType": "string",
          "name": "description",
          "type": "string"
        }
      ],
      "name": "PropertyAdded",
      "type": "event"
    },
    {
      "anonymous": false,
      "inputs": [
        {
          "indexed": true,
          "internalType": "uint256",
          "name": "propertyId",
          "type": "uint256"
        },
        {
          "indexed": true,
          "internalType": "address",
          "name": "from",
          "type": "address"
        },
        {
          "indexed": true,
          "internalType": "address",
          "name": "to",
          "type": "address"
        },
        {
          "indexed": false,
          "internalType": "string",
          "name": "ipfsHash",
          "type": "string"
        }
      ],
      "name": "PropertyTransferred",
      "type": "event"
    },
    {
      "inputs": [
        {
          "internalType": "address",
          "name": "_initialOwner",
          "type": "address"
        },
        {
          "internalType": "string",
          "name": "_ipfsHash",
          "type": "string"
        },
        {
          "internalType": "string",
          "name": "_description",
          "type": "string"
        }
      ],
      "name": "addProperty",
      "outputs": [],
      "stateMutability": "nonpayable",
      "type": "function"
    },
    {
      "inputs": [
        {
          "internalType": "uint256",
          "name": "_propertyId",
          "type": "uint256"
        }
      ],
      "name": "getProperty",
      "outputs": [
        {
          "components": [
            {
              "internalType": "uint256",
              "name": "id",
              "type": "uint256"
            },
            {
              "internalType": "address",
              "name": "currentOwner",
              "type": "address"
            },
            {
              "internalType": "string",
              "name": "ipfsHash",
              "type": "string"
            },
            {
              "internalType": "string",
              "name": "description",
              "type": "string"
            },
            {
              "internalType": "address[]",
              "name": "previousOwnersHistory",
              "type": "address[]"
            }
          ],
          "internalType": "struct PropertyRegistry.Property",
          "name": "",
          "type": "tuple"
        }
      ],
      "stateMutability": "view",
      "type": "function"
    },
    {
      "inputs": [
        {
          "internalType": "uint256",
          "name": "_propertyId",
          "type": "uint256"
        }
      ],
      "name": "getPropertyHistory",
      "outputs": [
        {
          "internalType": "address[]",
          "name": "",
          "type": "address[]"
        }
      ],
      "stateMutability": "view",
      "type": "function"
    },
    {
      "inputs": [],
      "name": "getTotalProperties",
      "outputs": [
        {
          "internalType": "uint256",
          "name": "",
          "type": "uint256"
        }
      ],
      "stateMutability": "view",
      "type": "function"
    },
    {
      "inputs": [],
      "name": "owner",
      "outputs": [
        {
          "internalType": "address",
          "name": "",
          "type": "address"
        }
      ],
      "stateMutability": "view",
      "type": "function"
    },
    {
      "inputs": [
        {
          "internalType": "uint256",
          "name": "",
          "type": "uint256"
        }
      ],
      "name": "properties",
      "outputs": [
        {
          "internalType": "uint256",
          "name": "id",
          "type": "uint256"
        },
        {
          "internalType": "address",
          "name": "currentOwner",
          "type": "address"
        },
        {
          "internalType": "string",
          "name": "ipfsHash",
          "type": "string"
        },
        {
          "internalType": "string",
          "name": "description",
          "type": "string"
        }
      ],
      "stateMutability": "view",
      "type": "function"
    },
    {
      "inputs": [],
      "name": "renounceOwnership",
      "outputs": [],
      "stateMutability": "nonpayable",
      "type": "function"
    },
    {
      "inputs": [
        {
          "internalType": "address",
          "name": "newOwner",
          "type": "address"
        }
      ],
      "name": "transferOwnership",
      "outputs": [],
      "stateMutability": "nonpayable",
      "type": "function"
    },
    {
      "inputs": [
        {
          "internalType": "uint256",
          "name": "_propertyId",
          "type": "uint256"
        },
        {
          "internalType": "address",
          "name": "_newOwner",
          "type": "address"
        }
      ],
      "name": "transferProperty",
      "outputs": [],
      "stateMutability": "nonpayable",
      "type": "function"
    }
  ],
  "bytecode": "0x608060405234801561001057600080fd5b5060405161210f38038061210f833981810160405281019061003291906101e2565b80600073ffffffffffffffffffffffffffffffffffffffff168173ffffffffffffffffffffffffffffffffffffffff16036100a55760006040517f1e4fbdf700000000000000000000000000000000000000000000000000000000815260040161009c919061021e565b60405180910390fd5b6100b4816100bb60201b60201c565b5050610239565b60008060009054906101000a900473ffffffffffffffffffffffffffffffffffffffff169050816000806101000a81548173ffffffffffffffffffffffffffffffffffffffff021916908373ffffffffffffffffffffffffffffffffffffffff1602179055508173ffffffffffffffffffffffffffffffffffffffff168173ffffffffffffffffffffffffffffffffffffffff167f8be0079c531659141344cd1fd0a4f28419497f9722a3daafe3b4186f6b6457e060405160405180910390a35050565b600080fd5b600073ffffffffffffffffffffffffffffffffffffffff82169050919050565b60006101af82610184565b9050919050565b6101bf816101a4565b81146101ca57600080fd5b50565b6000815190506101dc816101b6565b92915050565b6000602082840312156101f8576101f761017f565b5b6000610206848285016101cd565b91505092915050565b610218816101a4565b82525050565b6000602082019050610233600083018461020f565b92915050565b611ec7806102486000396000f3fe608060405234801561001057600080fd5b50600436106100935760003560e01c80638da5cb5b116100665780638da5cb5b1461010c578063f2fde38b1461012a578063f7b1080814610146578063fd58524814610179578063ff356237146101a957610093565b806317aaf5ed146100985780631ee90a5f146100b657806332665ffb146100d2578063715018a614610102575b600080fd5b6100a06101c5565b6040516100ad9190610fcd565b60405180910390f35b6100d060048036038101906100cb91906111a0565b6101cf565b005b6100ec60048036038101906100e79190611257565b61047a565b6040516100f99190611454565b60405180910390f35b61010a610712565b005b610114610726565b6040516101219190611485565b60405180910390f35b610144600480360381019061013f91906114a0565b61074f565b005b610160600480360381019061015b9190611257565b6107d5565b6040516101709493929190611517565b60405180910390f35b610193600480360381019061018e9190611257565b610935565b6040516101a091906115d9565b60405180910390f35b6101c360048036038101906101be91906115fb565b610a32565b005b6000600154905090565b6101d7610d75565b600073ffffffffffffffffffffffffffffffffffffffff168373ffffffffffffffffffffffffffffffffffffffff1603610246576040517f08c379a000000000000000000000000000000000000000000000000000000000815260040161023d906116ad565b60405180910390fd5b600082511161028a576040517f08c379a00000000000000000000000000000000000000000000000000000000081526004016102819061173f565b60405180910390fd5b60008151116102ce576040517f08c379a00000000000000000000000000000000000000000000000000000000081526004016102c5906117d1565b60405180910390fd5b600160008154809291906102e190611820565b9190505550600060015490506040518060a001604052808281526020018573ffffffffffffffffffffffffffffffffffffffff168152602001848152602001838152602001600067ffffffffffffffff81111561034157610340611075565b5b60405190808252806020026020018201604052801561036f5781602001602082028036833780820191505090505b50815250600260008381526020019081526020016000206000820151816000015560208201518160010160006101000a81548173ffffffffffffffffffffffffffffffffffffffff021916908373ffffffffffffffffffffffffffffffffffffffff16021790555060408201518160020190816103ec9190611a74565b5060608201518160030190816104029190611a74565b50608082015181600401908051906020019061041f929190610ec8565b509050508373ffffffffffffffffffffffffffffffffffffffff16817f528e28952cd1c44ac2f0d636642ae9c1e8d9a5103488130ba94a039ba87a3a05858560405161046c929190611b46565b60405180910390a350505050565b610482610f52565b60006002600084815260200190815260200160002060000154036104db576040517f08c379a00000000000000000000000000000000000000000000000000000000081526004016104d290611bef565b60405180910390fd5b600260008381526020019081526020016000206040518060a0016040529081600082015481526020016001820160009054906101000a900473ffffffffffffffffffffffffffffffffffffffff1673ffffffffffffffffffffffffffffffffffffffff1673ffffffffffffffffffffffffffffffffffffffff16815260200160028201805461056990611897565b80601f016020809104026020016040519081016040528092919081815260200182805461059590611897565b80156105e25780601f106105b7576101008083540402835291602001916105e2565b820191906000526020600020905b8154815290600101906020018083116105c557829003601f168201915b505050505081526020016003820180546105fb90611897565b80601f016020809104026020016040519081016040528092919081815260200182805461062790611897565b80156106745780601f1061064957610100808354040283529160200191610674565b820191906000526020600020905b81548152906001019060200180831161065757829003601f168201915b505050505081526020016004820180548060200260200160405190810160405280929190818152602001828054801561070257602002820191906000526020600020905b8160009054906101000a900473ffffffffffffffffffffffffffffffffffffffff1673ffffffffffffffffffffffffffffffffffffffff16815260200190600101908083116106b8575b5050505050815250509050919050565b61071a610d75565b6107246000610dfc565b565b60008060009054906101000a900473ffffffffffffffffffffffffffffffffffffffff16905090565b610757610d75565b600073ffffffffffffffffffffffffffffffffffffffff168173ffffffffffffffffffffffffffffffffffffffff16036107c95760006040517f1e4fbdf70000000000000000000000000000000000000000000000000000000081526004016107c09190611485565b60405180910390fd5b6107d281610dfc565b50565b60026020528060005260406000206000915090508060000154908060010160009054906101000a900473ffffffffffffffffffffffffffffffffffffffff169080600201805461082490611897565b80601f016020809104026020016040519081016040528092919081815260200182805461085090611897565b801561089d5780601f106108725761010080835404028352916020019161089d565b820191906000526020600020905b81548152906001019060200180831161088057829003601f168201915b5050505050908060030180546108b290611897565b80601f01602080910402602001604051908101604052809291908181526020018280546108de90611897565b801561092b5780601f106109005761010080835404028352916020019161092b565b820191906000526020600020905b81548152906001019060200180831161090e57829003601f168201915b5050505050905084565b60606000600260008481526020019081526020016000206000015403610990576040517f08c379a000000000000000000000000000000000000000000000000000000000815260040161098790611bef565b60405180910390fd5b60026000838152602001908152602001600020600401805480602002602001604051908101604052809291908181526020018280548015610a2657602002820191906000526020600020905b8160009054906101000a900473ffffffffffffffffffffffffffffffffffffffff1673ffffffffffffffffffffffffffffffffffffffff16815260200190600101908083116109dc575b50505050509050919050565b6000600260008481526020019081526020016000206000015403610a8b576040517f08c379a0000000000000000000000000000000000000000000000000000000008152600401610a8290611bef565b60405180910390fd5b600073ffffffffffffffffffffffffffffffffffffffff168173ffffffffffffffffffffffffffffffffffffffff1603610afa576040517f08c379a0000000000000000000000000000000000000000000000000000000008152600401610af190611c81565b60405180910390fd5b60006002600084815260200190815260200160002090508060010160009054906101000a900473ffffffffffffffffffffffffffffffffffffffff1673ffffffffffffffffffffffffffffffffffffffff163373ffffffffffffffffffffffffffffffffffffffff1614610ba3576040517f08c379a0000000000000000000000000000000000000000000000000000000008152600401610b9a90611d39565b60405180910390fd5b8060010160009054906101000a900473ffffffffffffffffffffffffffffffffffffffff1673ffffffffffffffffffffffffffffffffffffffff168273ffffffffffffffffffffffffffffffffffffffff1603610c35576040517f08c379a0000000000000000000000000000000000000000000000000000000008152600401610c2c90611dcb565b60405180910390fd5b60008160010160009054906101000a900473ffffffffffffffffffffffffffffffffffffffff16905081600401819080600181540180825580915050600190039060005260206000200160009091909190916101000a81548173ffffffffffffffffffffffffffffffffffffffff021916908373ffffffffffffffffffffffffffffffffffffffff160217905550828260010160006101000a81548173ffffffffffffffffffffffffffffffffffffffff021916908373ffffffffffffffffffffffffffffffffffffffff1602179055508273ffffffffffffffffffffffffffffffffffffffff168173ffffffffffffffffffffffffffffffffffffffff16857f25808af84f1bb35a2fdec79e3aab4c0825cce634a3902764b791cdc5bbaddaf185600201604051610d679190611e6f565b60405180910390a450505050565b610d7d610ec0565b73ffffffffffffffffffffffffffffffffffffffff16610d9b610726565b73ffffffffffffffffffffffffffffffffffffffff1614610dfa57610dbe610ec0565b6040517f118cdaa7000000000000000000000000000000000000000000000000000000008152600401610df19190611485565b60405180910390fd5b565b60008060009054906101000a900473ffffffffffffffffffffffffffffffffffffffff169050816000806101000a81548173ffffffffffffffffffffffffffffffffffffffff021916908373ffffffffffffffffffffffffffffffffffffffff1602179055508173ffffffffffffffffffffffffffffffffffffffff168173ffffffffffffffffffffffffffffffffffffffff167f8be0079c531659141344cd1fd0a4f28419497f9722a3daafe3b4186f6b6457e060405160405180910390a35050565b600033905090565b828054828255906000526020600020908101928215610f41579160200282015b82811115610f405782518260006101000a81548173ffffffffffffffffffffffffffffffffffffffff021916908373ffffffffffffffffffffffffffffffffffffffff16021790555091602001919060010190610ee8565b5b509050610f4e9190610f97565b5090565b6040518060a0016040528060008152602001600073ffffffffffffffffffffffffffffffffffffffff1681526020016060815260200160608152602001606081525090565b5b80821115610fb0576000816000905550600101610f98565b5090565b6000819050919050565b610fc781610fb4565b82525050565b6000602082019050610fe26000830184610fbe565b92915050565b6000604051905090565b600080fd5b600080fd5b600073ffffffffffffffffffffffffffffffffffffffff82169050919050565b600061102782610ffc565b9050919050565b6110378161101c565b811461104257600080fd5b50565b6000813590506110548161102e565b92915050565b600080fd5b600080fd5b6000601f19601f8301169050919050565b7f4e487b7100000000000000000000000000000000000000000000000000000000600052604160045260246000fd5b6110ad82611064565b810181811067ffffffffffffffff821117156110cc576110cb611075565b5b80604052505050565b60006110df610fe8565b90506110eb82826110a4565b919050565b600067ffffffffffffffff82111561110b5761110a611075565b5b61111482611064565b9050602081019050919050565b82818337600083830152505050565b600061114361113e846110f0565b6110d5565b90508281526020810184848401111561115f5761115e61105f565b5b61116a848285611121565b509392505050565b600082601f8301126111875761118661105a565b5b8135611197848260208601611130565b91505092915050565b6000806000606084860312156111b9576111b8610ff2565b5b60006111c786828701611045565b935050602084013567ffffffffffffffff8111156111e8576111e7610ff7565b5b6111f486828701611172565b925050604084013567ffffffffffffffff81111561121557611214610ff7565b5b61122186828701611172565b9150509250925092565b61123481610fb4565b811461123f57600080fd5b50565b6000813590506112518161122b565b92915050565b60006020828403121561126d5761126c610ff2565b5b600061127b84828501611242565b91505092915050565b61128d81610fb4565b82525050565b61129c8161101c565b82525050565b600081519050919050565b600082825260208201905092915050565b60005b838110156112dc5780820151818401526020810190506112c1565b60008484015250505050565b60006112f3826112a2565b6112fd81856112ad565b935061130d8185602086016112be565b61131681611064565b840191505092915050565b600081519050919050565b600082825260208201905092915050565b6000819050602082019050919050565b60006113598383611293565b60208301905092915050565b6000602082019050919050565b600061137d82611321565b611387818561132c565b93506113928361133d565b8060005b838110156113c35781516113aa888261134d565b97506113b583611365565b925050600181019050611396565b5085935050505092915050565b600060a0830160008301516113e86000860182611284565b5060208301516113fb6020860182611293565b506040830151848203604086015261141382826112e8565b9150506060830151848203606086015261142d82826112e8565b915050608083015184820360808601526114478282611372565b9150508091505092915050565b6000602082019050818103600083015261146e81846113d0565b905092915050565b61147f8161101c565b82525050565b600060208201905061149a6000830184611476565b92915050565b6000602082840312156114b6576114b5610ff2565b5b60006114c484828501611045565b91505092915050565b600082825260208201905092915050565b60006114e9826112a2565b6114f381856114cd565b93506115038185602086016112be565b61150c81611064565b840191505092915050565b600060808201905061152c6000830187610fbe565b6115396020830186611476565b818103604083015261154b81856114de565b9050818103606083015261155f81846114de565b905095945050505050565b600082825260208201905092915050565b600061158682611321565b611590818561156a565b935061159b8361133d565b8060005b838110156115cc5781516115b3888261134d565b97506115be83611365565b92505060018101905061159f565b5085935050505092915050565b600060208201905081810360008301526115f3818461157b565b905092915050565b6000806040838503121561161257611611610ff2565b5b600061162085828601611242565b925050602061163185828601611045565b9150509250929050565b7f50726f706572747952656769737472793a20496e697469616c206f776e65722060008201527f63616e6e6f7420626520746865207a65726f2061646472657373000000000000602082015250565b6000611697603a836114cd565b91506116a28261163b565b604082019050919050565b600060208201905081810360008301526116c68161168a565b9050919050565b7f50726f706572747952656769737472793a204950465320686173682063616e6e60008201527f6f7420626520656d707479000000000000000000000000000000000000000000602082015250565b6000611729602b836114cd565b9150611734826116cd565b604082019050919050565b600060208201905081810360008301526117588161171c565b9050919050565b7f50726f706572747952656769737472793a204465736372697074696f6e20636160008201527f6e6e6f7420626520656d70747900000000000000000000000000000000000000602082015250565b60006117bb602d836114cd565b91506117c68261175f565b604082019050919050565b600060208201905081810360008301526117ea816117ae565b9050919050565b7f4e487b7100000000000000000000000000000000000000000000000000000000600052601160045260246000fd5b600061182b82610fb4565b91507fffffffffffffffffffffffffffffffffffffffffffffffffffffffffffffffff820361185d5761185c6117f1565b5b600182019050919050565b7f4e487b7100000000000000000000000000000000000000000000000000000000600052602260045260246000fd5b600060028204905060018216806118af57607f821691505b6020821081036118c2576118c1611868565b5b50919050565b60008190508160005260206000209050919050565b60006020601f8301049050919050565b600082821b905092915050565b60006008830261192a7fffffffffffffffffffffffffffffffffffffffffffffffffffffffffffffffff826118ed565b61193486836118ed565b95508019841693508086168417925050509392505050565b6000819050919050565b600061197161196c61196784610fb4565b61194c565b610fb4565b9050919050565b6000819050919050565b61198b83611956565b61199f61199782611978565b8484546118fa565b825550505050565b600090565b6119b46119a7565b6119bf818484611982565b505050565b5b818110156119e3576119d86000826119ac565b6001810190506119c5565b5050565b601f821115611a28576119f9816118c8565b611a02846118dd565b81016020851015611a11578190505b611a25611a1d856118dd565b8301826119c4565b50505b505050565b600082821c905092915050565b6000611a4b60001984600802611a2d565b1980831691505092915050565b6000611a648383611a3a565b9150826002028217905092915050565b611a7d826112a2565b67ffffffffffffffff811115611a9657611a95611075565b5b611aa08254611897565b611aab8282856119e7565b600060209050601f831160018114611ade5760008415611acc578287015190505b611ad68582611a58565b865550611b3e565b601f198416611aec866118c8565b60005b82811015611b1457848901518255600182019150602085019450602081019050611aef565b86831015611b315784890151611b2d601f891682611a3a565b8355505b6001600288020188555050505b505050505050565b60006040820190508181036000830152611b6081856114de565b90508181036020830152611b7481846114de565b90509392505050565b7f50726f706572747952656769737472793a2050726f706572747920646f65732060008201527f6e6f742065786973740000000000000000000000000000000000000000000000602082015250565b6000611bd96029836114cd565b9150611be482611b7d565b604082019050919050565b60006020820190508181036000830152611c0881611bcc565b9050919050565b7f50726f706572747952656769737472793a204e6577206f776e65722063616e6e60008201527f6f7420626520746865207a65726f206164647265737300000000000000000000602082015250565b6000611c6b6036836114cd565b9150611c7682611c0f565b604082019050919050565b60006020820190508181036000830152611c9a81611c5e565b9050919050565b7f50726f706572747952656769737472793a204f6e6c792074686520637572726560008201527f6e74206f776e65722063616e207472616e73666572207468652070726f70657260208201527f7479000000000000000000000000000000000000000000000000000000000000604082015250565b6000611d236042836114cd565b9150611d2e82611ca1565b606082019050919050565b60006020820190508181036000830152611d5281611d16565b9050919050565b7f50726f706572747952656769737472793a204e6577206f776e65722063616e6e60008201527f6f74206265207468652063757272656e74206f776e6572000000000000000000602082015250565b6000611db56037836114cd565b9150611dc082611d59565b604082019050919050565b60006020820190508181036000830152611de481611da8565b9050919050565b60008154611df881611897565b611e0281866114cd565b94506001821660008114611e1d5760018114611e3357611e66565b60ff198316865281151560200286019350611e66565b611e3c856118c8565b60005b83811015611e5e57815481890152600182019150602081019050611e3f565b808801955050505b50505092915050565b60006020820190508181036000830152611e898184611deb565b90509291505056fea264697066735822122005f806fce18feccfb4ef7a5e129e5b76c5c68816b318a7b2679d62ff07e5882e64736f6c634300081c0033",
  "linkReferences": {},
  "deployedLinkReferences": {}
}